:100000000C9462000C948A000C948A000C948A0070
:100010000C948A000C948A000C948A000C948A0038
:100020000C948A000C948A000C948A000C948A0028
:100030000C948A000C948A000C948A000C948A0018
:100040000C94E6040C948A000C94A6020C94800292
:100050000C948A000C948A000C948A000C948A00F8
:100060000C9434050C948A00000000002400270042
:100070002A0000000000250028002B0000000000DE
:1000800023002600290004040404040404040202DA
:100090000202020203030303030301020408102007
:1000A0004080010204081020010204081020000012
:1000B0000008000201000003040700000000000027
:1000C0000000D10F11241FBECFEFD8E0DEBFCDBF9F
:1000D00011E0A0E0B1E0EEE0F9E202C005900D927F
:1000E000AE37B107D9F723E0AEE7B1E001C01D920A
:1000F000AD32B207E1F710E0C2E6D0E004C02197CC
:10010000FE010E946B14C136D107C9F70E94CE09C7
:100110000C9485140C940000CF92DF92EF92FF9222
:100120000F931F93CF93DF936C017A018B01C0E093
:10013000D0E0CE15DF0589F0D8016D918D01D60193
:10014000ED91FC910190F081E02DC6010995892B7C
:1001500011F47E0102C02196ECCFC701DF91CF914F
:100160001F910F91FF90EF90DF90CF900895FC01C9
:10017000538D448D252F30E0842F90E0821B930B0C
:10018000541710F0CF96089501970895CF92DF92FB
:10019000EF92FF92CF93C82F809105038F3F09F014
:1001A00064C08091FC0291E09093500280934F02D2
:1001B00010924E0210924D028091FA029091FB0231
:1001C000DC01ED91FC910190F081E02D6C2F0995FF
:1001D0008091FA029091FB020E94620643E06091D6
:1001E000FC028091FA029091FB020E94BF0680916E
:1001F000FA029091FB02DC01ED91FC910284F385FF
:10020000E02D09956C01990FEE08FF08FE2CED2CEE
:10021000DC2CCC248091FA029091FB02DC01ED9160
:10022000FC910284F385E02D0995AC01990F660BD2
:10023000770BC42AD52AE62AF72AFE2CED2CDC2CD3
:10024000CC248091FA029091FB02DC01ED91FC91AB
:100250000284F385E02D0995AC01990F660B770BAD
:10026000C42AD52AE62AF72A33C0809108038F3F93
:1002700021F482E591E00E94310560E08091050360
:100280000E9440048C2F80680E941C0780E00E941E
:100290001C07C82ED12CE12CF12CFE2CED2CDC2CD3
:1002A000CC2480E00E941C07C82AFE2CED2CDC2CFC
:1002B000CC2480E00E941C07C82A61E080910503DD
:1002C0000E944004809108038F3F11F40E94300582
:1002D000C701B601CF91FF90EF90DF90CF900895C6
:1002E0008F929F92AF92BF92CF92DF92EF92FF9246
:1002F0008AEF0E94C6006115710520E8820791050A
:1003000009F47CC04091090350910A034A01A12CD1
:10031000B12CC72ED82EE92EFF24E7FCFA94C8187A
:10032000D908EA08FB08DC01CB0137E0B595A795B1
:10033000979587953A95D1F7B501A401440F551FBC
:10034000661F771F4C015D01841A950AA60AB70A39
:10035000A5019401A0910B03B0910C030E94DE1241
:100360004B015C01FBE0B594A79497948794FA95B0
:10037000D1F7A7019601C701B6010E94A1129B0106
:10038000AC01ACE05595479537952795AA95D1F7DF
:10039000A0910D03B0910E030E94DE12DC01CB018F
:1003A0002EE0B595A795979587952A95D1F7A50144
:1003B0009401280F391F4A1F5B1F209301033093BC
:1003C00002034093030350930403A5E0B0E00E94AE
:1003D000D312DC01CB0180589F4FAF4FBF4F692F25
:1003E0007A2F8B2F992787FD9A950E942C1120E058
:1003F00030E048EC52E40E94831004C060E070E0FA
:1004000080EC9FE7FF90EF90DF90CF90BF90AF9090
:100410009F908F90089581E592E00E94FA0221E07A
:10042000892B09F420E0822F08950E948014EF9216
:10043000FF920F931F93CF93DF93EC0181E0888F9E
:100440009B8D8C8D981305C0E889F989808185FD85
:1004500024C0F62E0B8D10E00F5F1F4F0F73112776
:10046000E02E8C8DE8120CC00FB607FCFACFE8899D
:10047000F989808185FFF5CFCE010E94F603F1CF87
:100480008B8DFE01E80FF11DE35AFF4FF0820B8FB9
:10049000EA89FB898081806207C0EE89FF896083D9
:1004A000E889F98980818064808381E090E0DF9130
:1004B000CF911F910F91FF90EF900895CF93DF930D
:1004C000EC01888D8823C9F0EA89FB89808185FD4C
:1004D00005C0A889B9898C9186FD0FC00FB607FCAD
:1004E000F5CF808185FFF2CFA889B9898C9185FFEE
:1004F000EDCFCE010E94F603E7CFDF91CF910895B3
:100500001F920F920FB60F9211242F933F934F9388
:100510005F936F937F938F939F93AF93BF93EF936B
:10052000FF9381E592E00E94F603FF91EF91BF9166
:10053000AF919F918F917F916F915F914F913F917B
:100540002F910F900FBE0F901F9018951F920F9232
:100550000FB60F9211242F938F939F93EF93FF93D6
:10056000E0916102F09162028081E0916702F09176
:10057000680282FD12C0908180916A028F5F8F7342
:1005800020916B02821751F0E0916A02F0E0EF5A7D
:10059000FD4F958F80936A0201C08081FF91EF919A
:1005A0009F918F912F910F900FBE0F901F901895D4
:1005B000FC01918D828D981761F0828DDF01A80F6B
:1005C000B11D5D968C91928D9F5F9F73928F90E08D
:1005D00008958FEF9FEF0895FC01918D828D9817FC
:1005E00031F0828DE80FF11D858D90E008958FEF39
:1005F0009FEF0895FC01918D228D892F90E0805C02
:100600009F4F821B91098F739927089580E090E096
:10061000892B29F00E940B0281110C94000008958F
:100620003FB7F8948091490290914A02A0914B0201
:10063000B0914C0226B5A89B05C02F3F19F001963A
:10064000A11DB11D3FBFBA2FA92F982F8827820F58
:10065000911DA11DB11DBC01CD0142E0660F771FA8
:10066000881F991F4A95D1F7089585ED8093BC00A6
:100670008091BC0084FDFCCF1092800108954091D0
:10068000FF01262F30E0240F311D21323105DCF42B
:10069000209180012430C9F4FC0180E090E08617AD
:1006A00058F43091FF012191DC01A352BE4FA30FFA
:1006B000B11D2C930196F3CF8091FF01680F6093D9
:1006C000FF0180E0089581E0089582E00895089593
:1006D000E091820180918101E81730F4F0E0E35469
:1006E000FE4F808190E008958FEF9FEF08959091E5
:1006F000820180918101981750F4E92FF0E0E354D2
:10070000FE4F208130E09F5F9093820102C02FEF67
:100710003FEFC90108958091810190E0209182010D
:10072000821B91090895CF92DF92EF92FF920F936F
:100730001F93CF93DF937C01262F972F8A018091FF
:100740005002882391F0C62FD72F6E01C40ED51EFC
:10075000CC15DD0571F06991D701ED91FC91019007
:10076000F081E02DC7010995F3CF642F822F0E94FD
:100770003F03C801DF91CF911F910F91FF90EF9040
:10078000DF90CF900895CF93DF931F92CDB7DEB760
:100790006983209150022223D1F020914D02203212
:1007A00040F021E030E0FC013383228380E090E0E0
:1007B00015C080914E02E82FF0E0E356FE4F99817C
:1007C00090838F5F80934E0280934D0205C061E05D
:1007D000CE0101960E943F0381E090E00F90DF91EF
:1007E000CF910895089580E090E00895FC01848DF4
:1007F000DF01A80FB11DA35ABF4F2C91848D90E04B
:1008000001968F739927848FA689B7892C93A08925
:10081000B1898C9180648C93938D848D981306C0DC
:100820000288F389E02D80818F7D80830895833055
:1008300081F028F4813099F08230A1F0089587305A
:10084000A9F08830B9F08430D1F4809180008F7D98
:1008500003C0809180008F7780938000089584B5D5
:100860008F7702C084B58F7D84BD08958091B000DC
:100870008F7703C08091B0008F7D8093B000089582
:100880001F93CF93DF93282F30E0F901E255FF4FFC
:100890008491F901E656FF4FD491F901EA57FF4FD1
:1008A000C491CC23C9F0162F81110E941704EC2F9C
:1008B000F0E0EE0FFF1FEE58FF4FA591B4918FB7F8
:1008C000F894111105C09C91ED2FE095E92302C029
:1008D000EC91ED2BEC938FBFDF91CF911F91089599
:1008E000CF93DF9390E0FC01E656FF4F2491FC018B
:1008F000EA57FF4F8491882361F190E0880F991F98
:10090000FC01E859FF4FC591D491FC01EE58FF4F0F
:10091000A591B491611109C09FB7F8948881209581
:1009200082238883EC912E230BC0623061F49FB741
:10093000F8943881822F809583238883EC912E2B25
:100940002C939FBF06C08FB7F894E8812E2B288385
:100950008FBFDF91CF9108958F929F92AF92BF92F8
:10096000CF92DF92EF92FF926B017C010E94100305
:100970004B015C01C114D104E104F104F1F00E94C7
:100980001003DC01CB0188199909AA09BB09883E2B
:100990009340A105B10570F321E0C21AD108E10826
:1009A000F10888EE880E83E0981EA11CB11CC114CA
:1009B000D104E104F10419F7DDCFFF90EF90DF904F
:1009C000CF90BF90AF909F908F9008951F920F92FD
:1009D0000FB60F9211242F933F938F939F93AF9352
:1009E000BF938091830190918401A0918501B09182
:1009F00086013091480223E0230F2D3720F4019621
:100A0000A11DB11D05C026E8230F0296A11DB11D31
:100A1000209348028093830190938401A0938501E1
:100A2000B09386018091490290914A02A0914B02B5
:100A3000B0914C020196A11DB11D80934902909383
:100A40004A02A0934B02B0934C02BF91AF919F9189
:100A50008F913F912F910F900FBE0F901F9018957F
:100A600008958CBD9DBD08951F920F920FB60F92F1
:100A700011242F933F934F935F936F937F938F93A3
:100A80009F93AF93BF93EF93FF938091B900887FBB
:100A9000803609F49CC068F5883209F45BC090F494
:100AA000803109F454C038F4882309F4F6C0883042
:100AB00009F44DC0F6C0883109F44CC0803209F405
:100AC0005DC0EFC0803409F468C048F4803309F495
:100AD00055C0883309F0E5C080932402D8C0803522
:100AE00009F44FC0883509F45DC0883409F0D9C0D5
:100AF000D6C0883909F4C7C0A8F4883709F467C09C
:100B000038F4883609F463C0803709F460C0C9C07E
:100B1000883809F4B8C0803909F45FC0803809F01A
:100B2000C0C05BC0803B09F486C038F4803A09F449
:100B300066C0883A09F47FC0B4C0803C09F4A7C0FD
:100B4000883C09F4A4C0883B09F48AC0AAC08091FB
:100B5000470210C09091460280914502981770F5A7
:100B6000E091460281E08E0F80934602F0E0EB5D5B
:100B7000FD4F80818093BB0085EC86C0809324026A
:100B80008EC0E091460281E08E0F809346028091F4
:100B9000BB00F0E0EB5DFD4F8083909146028091B9
:100BA00045026EC0E091460281E08E0F80934602BE
:100BB0008091BB00F0E0EB5DFD4F808380917F0171
:100BC00081116DC081E080937E0184EA61C083E081
:100BD0008093800110922302CFCF80912302803234
:100BE00008F051C0E091230281E08E0F8093230230
:100BF0008091BB00F0E0ED5FFD4F8083BDCF85ECC1
:100C00008093BC001092800180912302803230F4E6
:100C1000E0912302F0E0ED5FFD4F1082609123022E
:100C200070E0E0910102F091020283E092E0099508
:100C30001092230236C084E080938001109200025B
:100C40001092FF01E091FD01F091FE010995809164
:100C5000FF01811105C081E08093FF011092DD0149
:100C6000E091000281E08E0F80930002F0E0E352F9
:100C7000FE4F80818093BB00909100028091FF0124
:100C8000981708F479CF85E88093BC000AC085ECFA
:100C90008093BC001092800104C0109224020E9434
:100CA0003503FF91EF91BF91AF919F918F917F910C
:100CB0006F915F914F913F912F910F900FBE0F90C9
:100CC0001F90189520914D0290914F02213208F00B
:100CD0004AC0809180018111FCCF32E030938001C5
:100CE00031E030937F013FEF3093240210924602AF
:100CF00020934502ADE9B1E045E252E0FA013E2F12
:100D0000341B321718F43D913193F9CF10924702FA
:100D100020914702990F922B9093470290917E0168
:100D2000913061F410927E01909147029093BB0044
:100D30009091BC0093FDF8CF95EC01C095EE909397
:100D4000BC00909180019230E1F3909124029F3F8A
:100D500079F080912402803241F080912402803326
:100D600031F084E005C081E003C082E001C083E08F
:100D700010924E0210924D021092500208958091EE
:100D800080018111FCCF842F413208F080E291E094
:100D90009093800190937F012FEF20932402109273
:100DA0004602280F209345029093470290914702F4
:100DB000660F692B6093470290917E01913061F438
:100DC00010927E01909147029093BB009091BC00DD
:100DD00093FDF8CF95EC01C095EE9093BC009091F7
:100DE00080019130E1F390914602981710F48091C0
:100DF0004602A5E2B2E02DEB31E0F9019E2F921BF5
:100E0000981718F49D919193F9CF109282018093D5
:100E100081010895009769F0FC0101900020E9F735
:100E20003197AF01481B590BBC0181E592E00C944E
:100E30008C0080E090E00895CF92DF92EF92FF92D5
:100E40000F931F93CF93DF93909108039F3F39F443
:100E50008EBD00000DB407FEFDCF8EB544C0E82E58
:100E6000C7E0D0E0D12C01E010E0DD0C60E0809123
:100E700008030E944004B8010C2E01C0660F0A94BA
:100E8000EAF76E21809106030E94400461E08091A0
:100E900008030E9440042091070330E0F901E25565
:100EA000FF4F8491F901E656FF4FC490F901EA57CC
:100EB000FF4FF490FF2071F081110E941704EF2D75
:100EC000F0E0EE0FFF1FE458FF4FA591B491EC91B5
:100ED000EC2129F4219708F0C8CF8D2D04C08D2D69
:100EE0008160D82EF7CFDF91CF911F910F91FF90A6
:100EF000EF90DF90CF900895CF93DF93D82FC62F38
:100F0000809105038F3F59F58091FC0291E0909309
:100F1000500280934F0210924E0210924D02809127
:100F2000FA029091FB02DC01ED91FC910190F081BD
:100F3000E02D6D2F09958091FA029091FB02DC0162
:100F4000ED91FC910190F081E02D6C2F099580913D
:100F5000FA029091FB02DF91CF910C94620680918E
:100F600008038F3F21F482E591E00E94310560E0A3
:100F7000809105030E9440048D2F8F770E941C07EB
:100F80008C2F0E941C0761E0809105030E944004A1
:100F9000809108038F3F21F4DF91CF910C943005AD
:100FA000DF91CF910895CF93C82F809105038F3F94
:100FB00099F58091FC0291E09093500280934F024A
:100FC00010924E0210924D028091FA029091FB0213
:100FD000DC01ED91FC910190F081E02D6C2F0995E1
:100FE0008091FA029091FB020E94620641E06091BA
:100FF000FC028091FA029091FB020E94BF06809150
:10100000FA029091FB02DC01ED91FC910284F385E0
:10101000E02D0995C82F20C0809108038F3F21F44F
:1010200082E591E00E94310560E0809105030E9415
:1010300040048C2F80680E941C0780E00E941C07DF
:10104000C82F61E0809105030E944004809108034D
:101050008F3F11F40E9430058C2FCF910895CF93CC
:10106000DF93C82F809105038F3F09F044C0809122
:10107000FC0291E09093500280934F0210924E0236
:1010800010924D028091FA029091FB02DC01ED91E9
:10109000FC910190F081E02D6C2F09958091FA026E
:1010A0009091FB020E94620642E06091FC028091F6
:1010B000FA029091FB020E94BF068091FA02909181
:1010C000FB02DC01ED91FC910284F385E02D099592
:1010D000C82F8091FA029091FB02DC01ED91FC9106
:1010E0000284F385E02D099520E030E03C2FE901F2
:1010F000C82BD92B29C0809108038F3F21F482E5AA
:1011000091E00E94310560E0809105030E94400457
:101110008C2F80680E941C0780E00E941C07C82F4B
:1011200080E00E941C072C2F30E0322F2227E9019B
:10113000C82B61E0809105030E9440048091080360
:101140008F3F11F40E943005CE01DF91CF910895B9
:101150000E942F089827892798270895E091510227
:10116000F09152020190F081E02D682F81E592E02C
:1011700009948F929F92AF92BF920F931F93CF9338
:10118000DF93CDB7DEB7A1970FB6F894DEBF0FBEE1
:10119000CDBF19A2423008F44AE08E010F5D1F4F07
:1011A000842E912CA12CB12CA50194010E94B11286
:1011B000E62FB901CA0101501109EA3014F4E05DCB
:1011C00001C0E95CD801EC93232B242B252B61F77C
:1011D000C8010E940A07A1960FB6F894DEBF0FBEA1
:1011E000CDBFDF91CF911F910F91BF90AF909F9096
:1011F0008F9008954F925F926F927F928F929F92FD
:10120000AF92BF92CF92DF92EF92FF926B017C017F
:10121000B42E9B01AC010E949C12882319F082E736
:1012200091E027C026013701E89477F82FEF3FEFD0
:101230004FE75FE7C301B2010E949C1281110DC00C
:101240002FEF3FEF4FE75FE7C301B2010E947E102F
:1012500018161CF486E791E00CC02FEF3FEF4FE724
:101260005FE4C701B6010E942A12181684F48AE7C7
:1012700091E0FF90EF90DF90CF90BF90AF909F9064
:101280008F907F906F905F904F900C940A072FEF94
:101290003FEF4FE75FECC701B6010E947E1087FD6C
:1012A000E6CF20E030E0A901C701B6010E947E1020
:1012B00087FF09C08DE20E94AE084C01F7FAF09456
:1012C000F7F8F09402C0812C912CA12C60E070E022
:1012D00080E09FE3AB1441F020E030E040E251E4D5
:1012E0000E948310A394F6CF9B01AC01C701B60105
:1012F0000E9412102B013C010E94F5106B017C0131
:101300000E942A119B01AC01C301B2010E9411107D
:101310002B013C014AE0C701B6010E94B9087C01DB
:10132000E80CF91CBB2029F08EE20E94AE08E80E02
:10133000F91EDB2CDD2021F120E030E040E251E419
:10134000C301B2010E942F122B013C010E94F51033
:101350004B01A12CB12C4AE0C501B4010E94B9088F
:10136000E80EF91EC501B4010E942A119B01AC01CF
:10137000C301B2010E9411102B013C01DA94DACFB3
:10138000C701FF90EF90DF90CF90BF90AF909F90FC
:101390008F907F906F905F904F900895CF93DF93E1
:1013A000CDB7DEB7A2970FB6F894DEBF0FBECDBFA4
:1013B000789484B5826084BD84B5816084BD85B530
:1013C000826085BD85B5816085BD80916E0081603C
:1013D00080936E00109281008091810082608093E2
:1013E00081008091810081608093810080918000E4
:1013F0008160809380008091B10084608093B1000F
:101400008091B00081608093B00080917A00846008
:1014100080937A0080917A00826080937A00809134
:101420007A00816080937A0080917A00806880934E
:101430007A001092C10061E08DE00E94700461E0CA
:1014400088E00E94700460E08DE00E94400460E04B
:1014500088E00E944004E0916102F091620282E023
:101460008083E0915D02F0915E021082E0915F0264
:10147000F09160028FEC808310926902E091650226
:10148000F091660286E08083E0916302F09164024D
:10149000808180618083E0916302F09164028081A9
:1014A00088608083E0916302F091640280818068AB
:1014B0008083E0916302F091640280818F7D80835C
:1014C00087E78093FC028EEE92E09093FB0280937C
:1014D000FA02809105038F3F41F51092820110922C
:1014E000810110924E0210924D021092800181E013
:1014F00080937F0110927E0161E082E10E944004AE
:1015000061E083E10E9440048091B9008E7F809366
:10151000B9008091B9008D7F8093B90088E48093F1
:10152000B80085E48093BC004EC061E00E94400496
:1015300061E0809105030E947004809108038F3F51
:1015400009F034C01FB7F89480918701811127C03A
:10155000E0E9F0E08491E4EAF0E09491E82FF0E033
:10156000EE0FFF1FE859FF4FA591B491EC91E923CD
:1015700021F461E08AE00E94400461E08AE00E9478
:1015800070048CB580618CBD8CB580648CBD61E0CD
:101590008DE00E94700461E08BE00E9470048091F5
:1015A00087018F5F809387011FBF0DC061E00E949C
:1015B000700461E0809106030E94700460E08091F5
:1015C00007030E94700480ED0E94D307803609F063
:1015D000F5C066EB80EE0E947C076CE271E080E073
:1015E00090E00E94AC0483EF0E94D30780FF05C007
:1015F00064E670E080E090E0F4CF88E80E94A808FC
:1016000090930A03809309038AE80E94A8089093A4
:101610000C0380930B038CE80E94A80890930E03A0
:1016200080930D038EE80E94A80890931003809386
:101630000F0380E90E94A80890931203809311037E
:1016400082E90E94A808909314038093130384E90D
:101650000E94A808909316038093150386E90E94C0
:10166000A808909318038093170388E90E94A8089C
:1016700090931A03809319038AE90E94A808909313
:101680001C0380931B038CE90E94A80890931E03FF
:1016900080931D038EE90E94A808909320038093F5
:1016A0001F0381EA0E94D3078093210381EE0E94E9
:1016B000A808909323038093220383EE0E94D3070C
:1016C0008093240384EE0E94D307182F85EE0E9496
:1016D000D307282F2F7030E1139FC0011124822BD4
:1016E000909326038093250386EE0E94D307182F3C
:1016F00085EE0E94D30790E004E0959587950A95C2
:10170000E1F740E1149F90011124822B932B9093D9
:1017100028038093270387EE0E94D3078093290331
:101720008DEE80932B0380912C038F71806A8093C0
:101730002C0380912A03807C80932A0365E082EF4A
:101740000E947C0790912A03692F677050E2659F81
:1017500090011124892F8695869586958770A8E03B
:101760008A9FB0011124622B732B97FB992790F964
:10177000692B85EF0E947C0790912B03692F67707E
:10178000B0E26B9F90011124892F869586958695EE
:101790008770E8E08E9FB0011124622B732B929525
:1017A000969596959370692B84EF0E947C0764E66A
:1017B00070E080E090E00E94AC049BC085E291E084
:1017C0000E940A0785E391E00E940A0768EE73E031
:1017D00080E090E00E94AC04F1CF10929C01109246
:1017E0009B0181E592E00E94D80290939A01809338
:1017F00099018033910509F085C060E088E00E947E
:1018000040041092880180919B0190919C01049763
:1018100031F460E088E00E944004109288012FB704
:10182000F8948091830190918401A0918501B091F9
:1018300086012FBF409195015091960160919701CB
:1018400070919801841B950BA60BB70B209100019A
:1018500080369A4EA105B10508F069C0211167C014
:1018600088E391E00E940A076091910170919201D2
:10187000809193019091940142E00E94FA0882E4E1
:1018800091E00E940A076091880170E080E090E09A
:101890004AE00E94B9088EE491E00E940A07609134
:1018A000890170918A0180918B0190918C0142E0B5
:1018B0000E94FA0887E591E00E940A0760918D0175
:1018C00070918E0180918F019091900142E00E9471
:1018D000FA0881E691E00E940A0785E391E00E9400
:1018E0000A0760ED77E080E090E00E94AC040E947F
:1018F000060381E592E00E94FA02181619060CF41C
:101900006CCF0BC0C19709F07ECF61E088E00E94E8
:10191000400481E08093880176CF80919B01909173
:101920009C01019690939C0180939B016CCF222394
:1019300019F01092000113C02FB7F8948091830121
:1019400090918401A0918501B09186012FBF809371
:10195000950190939601A0939701B09398010E94EE
:101960007001609391017093920180939301909321
:1019700094010E94700187EF0E94C6006F837887F0
:1019800089879A87611571058048910509F4FDC121
:101990008091010390910203A0910303B09104038D
:1019A0006C017D01FF0CCC08DC2C76019C01AD01A3
:1019B0006C2D7C2D8C2D9C2D345F4140510961098B
:1019C0007109810991092AA339A349835A836B8339
:1019D0007C838D839E8359016A017B018C010E9467
:1019E000E6122E8B3F8B488F598F6A8F7B8F8C8F9F
:1019F0009D8F309119033E8F40911A034B87509170
:101A000017035F8F809118038C879091150398A31B
:101A1000A0911603AD87B0901203A09011031B2D67
:101A2000110F110BC12ED12EE12EF12E012F2AA163
:101A300039A149815A816B817C818D819E810E946F
:101A4000E6120CE00E94161419012A013B014C0118
:101A5000B0901403A09013031B2D110F110BC12E76
:101A6000D12EE12EF12E012F2E893F89488D598DDF
:101A70006A8D7B8D8C8D9D8D0E94E61208E00E9400
:101A80002F1451016201730184010E944D1470589A
:101A90008F4F9F4FA0900F03B0901003C12CD12CFB
:101AA000E12CF12C00E010E00E94E61201E20E941D
:101AB0002F142E873F87488B598B6A8B7B8B8C8B9F
:101AC0009D8BA0E00E945F1409F464C1AE8C1B855D
:101AD000110F110BBB84C12ED12EE12EF12E012F3F
:101AE0002E893F89488D598D6A8D7B8D8C8D9D8D7A
:101AF0000E94E61219012A013B014C01AF8C1C85A2
:101B0000110F110BBC84C12ED12EE12EF12E012F0D
:101B10002AA139A149815A816B817C818D819E8165
:101B20000E94E61201E10E94161459016A017B012C
:101B30008C019101A201B301C4010E944D1419014D
:101B40002A013B014C018F819885A985BA85E4E083
:101B5000B595A79597958795EA95D1F720E030E060
:101B600040E150E0281B390B4A0B5B0BDA01C9013D
:101B700069017A01FF0CCC08DC2C7601AD016C2DDB
:101B80007C2D8C2D9C2D0FE10E941614F901B42F91
:101B9000A52F6C837D8389839A8328A19D85990FC6
:101BA000990B3D85492F592F692F792F892F03E2F2
:101BB0000E94161459016A017B018C019101A20156
:101BC000B301C4010E944D1459016A017B018C01CB
:101BD0009F014B2F5A2F6C817D8189819A810E94B0
:101BE00056144901542E652EB62FA72FF82FE92F32
:101BF00003E00E9416145401C52CD62CEB2EFA2EAD
:101C00000F2F1E2F0E94561459016A017B01782E56
:101C1000192F03E00E941614072D0E94561403E0AA
:101C20000E9416145401C52CD62CEB2EFA2E0F2F21
:101C30001E2F0E94561402E00E9416140F2F0E94BD
:101C4000561401E00E9416140F2F0E945614AE8401
:101C5000BF84C888D988EA88FB880C891D890E94BE
:101C600041132B873F8349835A836B837C838D8306
:101C70009E830DE00E942F14922E832E742E652ECB
:101C8000562E472E382E292E3091200320911F03E7
:101C9000932F990F990BA92CB82CC72CD62CE52C77
:101CA000F42C032D122D492F592F692F792F892FAD
:101CB0000E94E6120E94E61209E10E942F145901C7
:101CC0006A017B018C012B853F8149815A816B819F
:101CD0007C818D819E810E944D1419012A013B0156
:101CE0004C0130911E0320911D03932F990F990BE6
:101CF000AB84BF80C980DA80EB80FC800D811E81BF
:101D0000492F592F692F792F892F0E94E61203E15D
:101D10000E942F1459016A017B018C019101A201DB
:101D2000B301C4010E944D1408E00E942F14522EEA
:101D3000632E742E852E962EF72FE82FB92F309113
:101D40001C0320911B03932F990F990B492F592F97
:101D5000692F792F892F04E00E94161459016A0116
:101D60007B018C01252D362D472D582D692D7F2F78
:101D70008E2F9B2F0E944D140E94241120E030E0F2
:101D800040E85BE30E942F1208C060E070E080EC46
:101D90009FE703C060E070E0CB0120E030E048EC5A
:101DA00052E40E94831060938D0170938E018093A2
:101DB0008F01909390010E9470018DEF0E942F0877
:101DC000A0E0B0E0811530E89307A105B10509F462
:101DD000DBC08090010390900203A0900303B090B9
:101DE00004034CE2941A41E0A40AB1083EE0880FD3
:101DF000991FAA1FBB1F3A95D1F740912503509117
:101E00002603052E000C660B770BE4E1440F551FEB
:101E1000661F771FEA95D1F76C017D01C41AD50AB8
:101E2000E60AF70AA0912703B0912803A5019401BF
:101E30000E94DE12C61AD70AE80AF90A50E4D50E43
:101E4000E11CF11CFFE0F594E794D794C794FA9550
:101E5000D1F7A09129030A2E000CBB0BA501940118
:101E60000E94DE122B013C01AAE0759467945794FE
:101E70004794AA95D1F7A0912403B0E00E94D31211
:101E8000DC01CB011BE0B595A795979587951A9531
:101E9000D1F7BC01CD0170588F4F9F4FA301920124
:101EA0000E94A112DC01CB010AE0B595A795979598
:101EB00087950A95D1F79C01AD01405E5F4FA091D7
:101EC0002203B09123030E94DE12DC01CB01905E5D
:101ED000AF4FBF4FBC01CD012EE09595879577950B
:101EE00067952A95D1F7A70196010E94A1126B016F
:101EF0007C013FE095958795779567953A95D1F761
:101F00009B01AC010E94A1129B01AC0167E05595B9
:101F10004795379527956A95D1F7A0912103B0E0B1
:101F20000E94D312DC01CB0174E0B595A79597957B
:101F300087957A95D1F7A7019601281B390B4A0B93
:101F40005B0BDA01C90157FF03C080E090E0DC01C0
:101F500081309105A10539E1B30724F080E090E0DC
:101F6000A0E0B9E1BC01CD012CE09595879577956E
:101F700067952A95D1F70E942C1120E030E040E8C7
:101F80005AE30E942F1204C060E070E080EC9FE7EB
:101F90006093890170938A0180938B0190938C01E7
:101FA0005FCCE1E5F2E01382128288EE93E0A0E0DC
:101FB000B0E084839583A683B78325E031E0318345
:101FC000208325EC30E03587248724EC30E0378708
:101FD000268720EC30E0318B208B21EC30E0338BF6
:101FE000228B22EC30E0358B248B26EC30E0378BD3
:101FF000268B118E128E138E148EEEEEF2E013826B
:10200000128284839583A683B78387E191E09183CD
:102010008083EAEFF2E08FEF838784878587868766
:1020200008955058BB27AA270E9429100C94F0113C
:102030000E94E21138F00E94E91120F039F49F3F2C
:1020400019F426F40C94CF110EF4E095E7FB0C94F0
:10205000C911E92F0E94011258F3BA1762077307DA
:102060008407950720F079F4A6F50C9423120EF45A
:10207000E0950B2EBA2FA02D0B01B90190010C0198
:10208000CA01A0011124FF27591B99F0593F50F4B0
:10209000503E68F11A16F040A22F232F342F442708
:1020A000585FF3CF469537952795A795F040539500
:1020B000C9F77EF41F16BA0B620B730B840BBAF0D0
:1020C0009150A1F0FF0FBB1F661F771F881FC2F73B
:1020D0000EC0BA0F621F731F841F48F4879577954F
:1020E0006795B795F7959E3F08F0B0CF9395880F09
:1020F00008F09927EE0F9795879508950E94A511EE
:1021000008F481E008950E9497100C94F0110E9449
:10211000E91158F00E94E21140F029F45F3F29F0E4
:102120000C94C91151110C9424120C94CF110E94DB
:10213000011268F39923B1F3552391F3951B550BC5
:10214000BB27AA2762177307840738F09F5F5F4F8A
:10215000220F331F441FAA1FA9F335D00E2E3AF0C9
:10216000E0E832D091505040E695001CCAF72BD0E1
:10217000FE2F29D0660F771F881FBB1F2617370732
:102180004807AB07B0E809F0BB0B802DBF01FF2764
:1021900093585F4F3AF09E3F510578F00C94C91167
:1021A0000C9424125F3FE4F3983ED4F38695779520
:1021B0006795B795F7959F5FC9F7880F911D96951D
:1021C000879597F90895E1E0660F771F881FBB1F79
:1021D000621773078407BA0720F0621B730B840B26
:1021E000BA0BEE1F88F7E09508950E94091288F057
:1021F0009F5798F0B92F9927B751B0F0E1F0660FCB
:10220000771F881F991F1AF0BA95C9F714C0B1300B
:1022100091F00E942312B1E008950C942312672FCD
:10222000782F8827B85F39F0B93FCCF3869577953A
:102230006795B395D9F73EF4909580957095619523
:102240007F4F8F4F9F4F089597FB16F40E94D21136
:102250000C946811E89409C097FB3EF49095809522
:10226000709561957F4F8F4F9F4F9923A9F0F92F5C
:1022700096E9BB279395F695879577956795B795DA
:10228000F111F8CFFAF4BB0F11F460FF1BC06F5FC0
:102290007F4F8F4F9F4F16C0882311F096E911C0D2
:1022A000772321F09EE8872F762F05C0662371F0F3
:1022B00096E8862F70E060E02AF09A95660F771F07
:1022C000881FDAF7880F9695879597F90895E8940F
:1022D000F92F96EBFF2381F0121613061406440B18
:1022E0009395F69587957795679557954040FF2389
:1022F000B9F71BC099270895882351F49850D2F755
:10230000872B762F652F542F432F322F20E0B1F3E8
:10231000121613061406440B88233AF09A95440FBC
:10232000551F661F771F881FCAF755234AF4440FAD
:10233000551F11F460FF04C06F5F7F4F8F4F9F4F99
:10234000880F9695879597F90895990F0008550F6E
:10235000AA0BE0E8FEEF16161706E807F907C0F02B
:1023600012161306E407F50798F0621B730B840B33
:10237000950B39F40A2661F0232B242B252B21F40D
:1023800008950A2609F4A140A6958FEF811D811DAD
:10239000089597F99F6780E870E060E008959FEFE7
:1023A00080EC089590958095709560955095409536
:1023B000309521953F4F4F4F5F4F6F4F7F4F8F4F5E
:1023C0009F4F089500240A9416161706180609064A
:1023D000089500240A94121613061406050608959B
:1023E000092E0394000C11F4882352F0BB0F40F423
:1023F000BF2B11F460FF04C06F5F7F4F8F4F9F4F63
:10240000089557FD9058440F551F59F05F3F71F0E4
:102410004795880F97FB991F61F09F3F79F087954B
:102420000895121613061406551FF2CF4695F1DFD4
:1024300008C0161617061806991FF1CF8695710564
:10244000610508940895E894BB2766277727CB0198
:1024500097F908950E94A51108F48FEF08950E943E
:1024600042120C94F0110E94E21138F00E94E9111E
:1024700020F0952311F00C94C9110C94CF11112464
:102480000C9424120E94011270F3959FC1F3950FD2
:1024900050E0551F629FF001729FBB27F00DB11DE8
:1024A000639FAA27F00DB11DAA1F649F6627B00D78
:1024B000A11D661F829F2227B00DA11D621F739F61
:1024C000B00DA11D621F839FA00D611D221F749F6F
:1024D0003327A00D611D231F849F600D211D822FB6
:1024E000762F6A2F11249F5750409AF0F1F08823DD
:1024F0004AF0EE0FFF1FBB1F661F771F881F91500A
:102500005040A9F79E3F510580F00C94C9110C94DE
:1025100024125F3FE4F3983ED4F386957795679550
:10252000B795F795E7959F5FC1F7FE2B880F911D33
:102530009695879597F908950E94A511880B990B98
:102540000895DB018F939F930E94D312BF91AF91A7
:10255000A29F800D911DA39F900DB29F900D1124FD
:102560000895A1E21A2EAA1BBB1BFD010DC0AA1FD4
:10257000BB1FEE1FFF1FA217B307E407F50720F0EC
:10258000A21BB30BE40BF50B661F771F881F991F67
:102590001A9469F760957095809590959B01AC01B0
:1025A000BD01CF0108950E947114A59F900DB49FA5
:1025B000900DA49F800D911D11240895B7FF0C94D8
:1025C000D3120E94D312821B930B0895DF93CF93F3
:1025D0001F930F939A9DF02D219FF00D8B9DF00D71
:1025E0008A9DE02DF10D039FF00D029FE00DF11D7E
:1025F0004E9DE00DF11D5E9DF00D4F9DF00D7F9302
:102600006F93BF92AF925F934F93D5010E94711465
:102610008B01AC01D7010E947114EB01E80FF91F87
:10262000D6010E9436132F913F91D6010E9471145A
:10263000C60FD71FE81FF91FAF91BF910E94361335
:102640002F913F910E947114C60FD71FE81FF91FE9
:10265000D6010E947114E60FF71F9801BE01CF0149
:1026600011240F911F91CF91DF9108950E94711451
:10267000460F571FC81FD91F08F431960895689454
:1026800001C0E894F92FF12B12F00C947313A0E021
:10269000B0E0EDE4F3E10C94E513092E059422F487
:1026A0000E94CF13112392F4F0E80F26FFEFE0947D
:1026B000F09400951095B094C094D094A194BF0A62
:1026C000CF0ADF0AEF0AFF0A0F0B1F0B0E947E13CF
:1026D00007FC0E94CF13CDB7DEB7ECE00C940114D9
:1026E000689401C0E8948F929F92CF93DF930E94E9
:1026F0007E13DF91CF919F908F9008958824992425
:10270000F401E401B0E49F93AA279A158B049C047A
:10271000ED05FE05CF05D007A10798F4AD2FDC2FFE
:10272000CF2FFE2FE92D982C892E982F872F762FCB
:10273000652F542F432F322F2227B85031F7BF91E6
:1027400027C01B2EBF91BB27220F331F441F551FCD
:10275000661F771F881F991F881C991CEE1FFF1F7B
:10276000CC1FDD1FAA1FBB1F8A149B04EC05FD05AF
:10277000CE05DF05A007B10748F08A189B08EC09D1
:10278000FD09CE09DF09A00BB10B21601A94E1F617
:102790002EF49401AF01BE01CD01000C08956095A7
:1027A00070958095909530954095509521953F4F27
:1027B0004F4F5F4F6F4F7F4F8F4F9F4F08952F9217
:1027C0003F924F925F926F927F928F929F92AF92C1
:1027D000BF92CF92DF92EF92FF920F931F93CF930E
:1027E000DF93CDB7DEB7CA1BDB0B0FB6F894DEBFA5
:1027F0000FBECDBF09942A88398848885F846E84CB
:102800007D848C849B84AA84B984C884DF80EE8014
:10281000FD800C811B81AA81B981CE0FD11D0FB61D
:10282000F894DEBF0FBECDBFED0108950F930830C1
:1028300090F0982F872F762F652F542F432F322F0C
:1028400022270850F4CF220F331F441F551F661F45
:10285000771F881F991F0A95B2F70F91089597FB6C
:1028600010F8169400080F93083098F00850232FA2
:10287000342F452F562F672F782F892F902DF4CF87
:1028800005949795879577956795579547953795CB
:1028900027950A95AAF70F9108952A0D3B1D4C1D07
:1028A0005D1D6E1D7F1D801F911F08952A193B0914
:1028B0004C095D096E097F09800B910B0895002476
:1028C000A7FD00942A1730054005500560057005E6
:1028D000800590050895EE0FFF1F0590F491E02DFF
:1028E0000994A29FB001B39FC001A39F700D811DE9
:1028F0001124911DB29F700D811D1124911D089509
:0E29000081E090E0F8940C948514F894FFCFD9
:10290E00010000000017028C00B7005E02FA02D828
:10291E0002EC0200000000C3039303F30367038B72
:10292E0003770368037B22636F6E6E656374656461
:10293E00223A307D000D0A007B2274656D70223ABA
:10294E0020002C22737461747573223A20002C229D
:10295E0068756D223A20002C2270726573223A201F
:10296E00002C22636F6E6E6563746564223A317D4E
:0E297E0009006E616E00696E66006F7666007D
:00000001FF
